:100000000C942A000C9426010C944F010C94780156
:100010000C9447000C9497020C946E020C941C02F2
:100020000C9445020C94F3010C9447000C94CA0103
:100030000C94A1010C94E9020C9447000C94C002AA
:100040000C9447000C9447000C9447000C94470014
:100050000C94470011241FBECFE5D8E0DEBFCDBF12
:1000600010E0A0E6B0E0E8E2F6E002C005900D92F4
:10007000A038B107D9F720E0A0E8B0E001C01D9298
:10008000A839B207E1F70E9449000C9412030C94BE
:1000900000000E944C00FFCFE0E6F0E020E081E0AD
:1000A00090E03191313031F008F488C0323009F4F9
:1000B00045C0C7C0422F469546954695322F3770AA
:1000C000423001F1433061F1413071F06BB3AC016A
:1000D00001C0440F3A95EAF74095362F34233BBBD5
:1000E0003AB343234ABBADC068B3AC0101C0440F6F
:1000F0003A95EAF74095362F342338BB37B343237C
:1001000047BB9FC065B3AC0101C0440F3A95EAF705
:100110004095362F342335BB34B3432344BB91C0C1
:1001200062B3AC0101C0440F3A95EAF74095362F0F
:10013000342332BB31B3432341BB83C0422F4695A6
:1001400046954695322F37704230F1F0433049F1F1
:10015000413069F06AB3AC0101C0440F3A95EAF747
:10016000342F309536233ABB3BB3432B3FC067B3A4
:10017000AC0101C0440F3A95EAF7342F309536238D
:1001800037BB38B3432B40C064B3AC0101C0440F4C
:100190003A95EAF7342F3095362334BB35B3432BE9
:1001A00041C061B3AC0101C0440F3A95EAF7342F66
:1001B0003095362331BB32B3432B42C0422F469594
:1001C00046954695322F3770423001F1433061F148
:1001D000413071F06AB3AC0101C0440F3A95EAF7BF
:1001E000362F342B3ABB3BB3409543234BBB29C03E
:1001F00067B3AC0101C0440F3A95EAF7362F342BB0
:1002000037BB38B34095432348BB1BC064B3AC0134
:1002100001C0440F3A95EAF7362F342B34BB35B37F
:100220004095432345BB0DC061B3AC0101C0440FF1
:100230003A95EAF7362F342B31BB32B3409543233E
:1002400042BB2F5F203209F02CCF08951F920F92EE
:100250000FB60F9211242F933F934F935F936F9399
:100260007F938F939F93AF93BF93EF93FF93E0910F
:100270008400F0918500309709F00995FF91EF9186
:10028000BF91AF919F918F917F916F915F914F91AE
:100290003F912F910F900FBE0F901F9018951F92B6
:1002A0000F920FB60F9211242F933F934F935F93AA
:1002B0006F937F938F939F93AF93BF93EF93FF932E
:1002C000E0918200F0918300309709F00995FF9149
:1002D000EF91BF91AF919F918F917F916F915F91BE
:1002E0004F913F912F910F900FBE0F901F90189537
:1002F0001F920F920FB60F9211242F933F934F939B
:100300005F936F937F938F939F93AF93BF93EF937D
:10031000FF93E0918000F0918100309709F00995FA
:10032000FF91EF91BF91AF919F918F917F916F91CD
:100330005F914F913F912F910F900FBE0F901F90A3
:1003400018951F920F920FB60F9211242F933F937F
:100350004F935F936F937F938F939F93AF93BF93CD
:10036000EF93FF93E0918600F0918700309709F0BA
:100370000995FF91EF91BF91AF919F918F917F91DF
:100380006F915F914F913F912F910F900FBE0F9002
:100390001F9018951F920F920FB60F9211242F9352
:1003A0003F934F935F936F937F938F939F93AF93FD
:1003B000BF93EF93FF93E0919200F09193003097F9
:1003C00009F00995FF91EF91BF91AF919F918F91A6
:1003D0007F916F915F914F913F912F910F900FBE41
:1003E0000F901F9018951F920F920FB60F92112425
:1003F0002F933F934F935F936F937F938F939F932D
:10040000AF93BF93EF93FF93E0919000F091910031
:10041000309709F00995FF91EF91BF91AF919F91AE
:100420008F917F916F915F914F913F912F910F909D
:100430000FBE0F901F9018951F920F920FB60F923C
:1004400011242F933F934F935F936F937F938F93D9
:100450009F93AF93BF93EF93FF93E0918E00F09142
:100460008F00309709F00995FF91EF91BF91AF91FF
:100470009F918F917F916F915F914F913F912F91BC
:100480000F900FBE0F901F9018951F920F920FB6EE
:100490000F9211242F933F934F935F936F937F930A
:1004A0008F939F93AF93BF93EF93FF93E0918C0053
:1004B000F0918D00309709F00995FF91EF91BF9170
:1004C000AF919F918F917F916F915F914F913F91EC
:1004D0002F910F900FBE0F901F9018951F920F92A3
:1004E0000FB60F9211242F933F934F935F936F9307
:1004F0007F938F939F93AF93BF93EF93FF93E0917D
:100500008A00F0918B00309709F00995FF91EF91E7
:10051000BF91AF919F918F917F916F915F914F911B
:100520003F912F910F900FBE0F901F9018951F9223
:100530000F920FB60F9211242F933F934F935F9317
:100540006F937F938F939F93AF93BF93EF93FF939B
:10055000E0918800F0918900309709F00995FF91AA
:10056000EF91BF91AF919F918F917F916F915F912B
:100570004F913F912F910F900FBE0F901F901895A4
:100580001F920F920FB60F9211242F933F934F9308
:100590005F936F937F938F939F93AF93BF93EF93EB
:1005A000FF93E0919600F0919700309709F009953C
:1005B000FF91EF91BF91AF919F918F917F916F913B
:1005C0005F914F913F912F910F900FBE0F901F9011
:1005D00018951F920F920FB60F9211242F933F93ED
:1005E0004F935F936F937F938F939F93AF93BF933B
:1005F000EF93FF93E0919400F0919500309709F00C
:100600000995FF91EF91BF91AF919F918F917F914C
:100610006F915F914F913F912F910F900FBE0F906F
:080620001F901895F894FFCF1C
:1006280000000000000000000000000000000000C2
:1006380002000000000000000000020200000000AC
:00000001FF
